:020000040800F2
:1000000070410020FD010008912A0008ED2700083A
:100010008D2A000815080008A3330008000000001E
:100020000000000000000000000000006501000862
:100030000D0A000800000000A9010008AB2E00080E
:10004000170200081702000817020008170200082C
:10005000170200081702000817020008170200081C
:10006000170200081702000817020008170200080C
:1000700017020008170200081702000817020008FC
:1000800017020008170200081702000817020008EC
:1000900017020008170200081702000817020008DC
:1000A00017020008170200081702000817020008CC
:1000B00017020008170200081702000817020008BC
:1000C00017020008170200081702000817020008AC
:1000D000170200081702000817020008170200089C
:1000E00017020008170200081702000800000000AD
:1000F0000000000000000000000000000000000000
:1001000000000000000000001702000817020008AD
:100110005530000865300008C12F0008170200089C
:10012000170200081702000817020008170200084B
:10013000170200080000000000000000170200087D
:10014000170200081702000817020008170200082B
:10015000DFF80CD000F0B0FA00480047CB3F0008B1
:1001600070410020224B19680868B0E8F00F80F356
:100170000988BFF36F8F4FF0000080F311884EF0B5
:100180000D0E70470000000006480068006880F30C
:10019000088862B661B6BFF34F8FBFF36F8F00DF81
:1001A00000BF00BF08ED00E0EFF30980BFF36F8FE1
:1001B0000F4B1A6820E9F00F106008B54FF050009F
:1001C00080F31188BFF34F8FBFF36F8F04F072FF7E
:1001D0004FF0000080F31188BDE8084019680868F6
:1001E000B0E8F00F80F30988BFF36F8F704700BF4E
:1001F00038000020EFF30580704700000648804774
:1002000006480047FEE7FEE7FEE7FEE7FEE7FEE7FB
:10021000FEE7FEE7FEE7FEE75D2F0008510100085C
:100220002DE9F05F0546002092469B46884606462B
:10023000814640241BE0284641464746224600F0BE
:1002400020F853465A46C01A914110D31146184619
:10025000224600F06DF82D1A67EB01084F46224642
:100260000120002100F064F817EB00094E41201E28
:10027000A4F10104DFDC484631462A464346BDE886
:10028000F09F202A04DB203A21FA02F00021704777
:1002900021FA02F3D040C2F12002914008431946EE
:1002A000704700000048704740660008A0F16101F7
:1002B000192900D82038704740EA01039B0703D072
:1002C00009E008C9121F08C0042AFAD203E011F895
:1002D000013B00F8013B521EF9D27047421C10F856
:1002E000011B0029FBD1801A704730B5044600205D
:1002F000034600E05B1C934203D2E05CCD5C401BF4
:10030000F8D030BD30B50B46014600202022012434
:1003100009E021FA02F59D4205D303FA02F5491BD3
:1003200004FA02F52844151EA2F10102F1DC30BDE9
:10033000202A04DB203A00FA02F1002070479140A5
:10034000C2F1200320FA03F31943904070472DE9CE
:10035000FE4F804681EA0300C00F0C46009021F05A
:10036000004123F00045B8EB0200A94105D2404608
:10037000214690461C460B46024623F0004010439F
:1003800004D14046214603B0BDE8F08F270DC7F3E6
:100390000A00C3F30A510290401A0190402866DA1D
:1003A000C3F3130040F4801B0098924620B1002351
:1003B000D2EB030A63EB0B0B01985946C0F14002E4
:1003C0005046FFF7B5FF06460D4650465946019A7E
:1003D00000F084F910EB08006141002487EA115213
:1003E00084EAE7731A433BD0009A3AB3019A012A90
:1003F0004FEA075210DC001B61EB02014FF0004294
:1004000002EA0752CDE90042001C41F58011324654
:100410002B4600F082F9B6E7001B61EB0201001CDD
:1004200041F5801300185B412018A2F5001747EB37
:10043000030140EAD570B6196D4111E06D084FEA2D
:10044000360645EAC0754FEA0752001B61EB020110
:10045000001C41F5801149084FEA30000019514154
:1004600032462B4603B0BDE8F04F00F049B9009882
:10047000012240000023D0EB020263EBE0730098FE
:1004800021464FEAE074B8EB000061EB0401E9E7B4
:1004900083F000435BE781F0004158E72DE9FE4F10
:1004A00081EA030404F0004421F0004100944FF07D
:1004B000000B23F0004350EA010402D052EA030487
:1004C00004D10020014603B0BDE8F08FC3F30A5405
:1004D000C1F30A552C44A4F2F3340194A0FB025456
:1004E000C1F3130141F48011C3F3130343F48013E8
:1004F00001FB024400FB034E840A970A44EA81543C
:1005000047EA8357A4FB076802958D0A05FB078518
:100510004FEA932C04FB0C542705029D4FEA065822
:1005200047EA1637B5EB08056EEB070C870E920EFF
:1005300047EA811742EA8312A7FB0201B6EB0B01DF
:1005400064EB00042B0D43EA0C335E1844EB1C50A3
:10055000DA465146E7FB0201C5F313044FEA0B33B9
:1005600043EA14534FEA0432019C43EA0603A4F120
:100570000C040294009CCDE900B400F0CEF8A2E790
:100580002DE9F04D81EA030404F0004B21F0004511
:1005900014464FF0000A23F0004150EA050220D033
:1005A00054EA01021DD0C5F30A570246C5F31303EE
:1005B000C1F31300C1F30A5640F4801543F48013CD
:1005C000A7EB0608101BD64608F2FD3873EB0500B2
:1005D00002D308F1010801E092185B41B8F1000F65
:1005E00003DA00200146BDE8F08D00204FF48011B1
:1005F000064684460EE0171B73EB050705D3121B56
:1006000063EB050306434CEA010C49084FEA30004E
:1006100092185B4150EA0107EDD152EA030012D073
:1006200082EA040083EA0501084303D100224FF067
:10063000004308E0101BAB4102D20122002302E07C
:100640006FF0010253101AEB06004CEB085110EB4F
:100650000A0041EB0B01BDE8F04D00F051B8C1F3C9
:100660000A52C1F3130140F2FF3341F480119A4260
:1006700002DA00200146704740F233439A42A2F268
:10068000334202DC5242FFF7FCBDFFF751BE0000CF
:1006900030B5002904DB4FF00044404264EB010117
:1006A000002B04DB4FF00044524264EB03039942F9
:1006B00008BF904230BD0000064C074D06E0E068E0
:1006C00040F0010394E8070098471034AC42F6D399
:1006D000FFF742FD9C660008BC660008202A06DB86
:1006E000CB17203A41FA02F043EAE07306E041FA00
:1006F00002F3D040C2F120029140084319467047EE
:1007000010B5002B08DA401C41F1000192185B4142
:100710001A4301D120F0010010BD2DE9F04D9246A1
:100720009B4611B1B1FA81F202E0B0FA80F22032B8
:100730009046FFF7FDFD04460F4640EA0A0041EAF5
:100740000B0153465A46084303D120463946BDE8BB
:10075000F08D114653EA010015D0C8F14002504611
:10076000FFF78FFD05460E46504659464246FFF7B5
:10077000DFFD084301D0012000E00020054346EAE8
:10078000E0762C4337430A984FEA4453A0EB080025
:100790004FEAD4240A304FF0000244EA47544FEAAB
:1007A000D72502D500200146D1E70105101969417E
:1007B000DDE9084500196941BDE8F04DA0E70000FA
:1007C0002DE9F04106460C4615460027204600F06C
:1007D0003FF80746012F12D12A462146304600F045
:1007E00021FA2946204603F0A1FC20B905A1304694
:1007F00000F07EFA03E005A1304600F079FABDE88A
:10080000F08100004F4B0D0A000000004552524F8E
:10081000520D0A0000BFFEE770B502460C46FF25E8
:10082000FF2309E012F8010B80EA03010648405C4F
:1008300080EA05030548455C2000A4F10106B4B236
:10084000F0D145EA032070BD94620008946300086B
:1008500070B5044600252078FFF728FD412805D112
:100860006078FFF723FD542800D10125284670BD8C
:100870002DE9F04105460026002415E00D4901EB65
:10088000C4014868FFF72AFD07460A4800EBC40088
:100890003A4641682846FFF728FD18B9054850F840
:1008A000346003E0601CC4B2202CE7DB00BF30469C
:1008B000BDE8F081AC64000810B50FA002F076FD31
:1008C000002412E0154800EBC400406838B113481A
:1008D00000EBC400416812A002F068FD00E006E0F1
:1008E00010A002F063FD601CC4B2222CEADB00BF42
:1008F0000DA002F05BFD10BD4D6964646C65206164
:100900006E6420417070204C61796572204D6F6477
:10091000756C65204E616D653A200000AC6400087E
:10092000257300002C0000000D0A00000FB47CB5F8
:1009300005460024002603E06D0800BF701CC6B207
:10094000002DF9D104F0AEFB002E0CDD5D200090EF
:10095000701E164901EBC0005B2215A143681648C2
:1009600002F034FD84B208A80190C4F58071124AE7
:100970001019019B079A02F03DFD204484B200202B
:100980000190FD2C0DDC0D200B4908550A210A4A67
:10099000601C11540021A01C11541146074800F09E
:1009A000A7F905F025FB7CBC5DF814FBAC640008DE
:1009B0002563257325630000B82D002090000020DA
:1009C00001490860704700008C0000200D4800F0CD
:1009D0001FF800BF0B49096A00235A1E0868194610
:1009E00004F0E8FD0128F5D100244022064905481D
:1009F00000F0B0F8044624B1224603490148FFF74D
:100A0000DFFEE7E790000020F82F0020704700008D
:100A100038B504462068B0B1207D022813DAA069F9
:100A200008B9207D78B1A06808B9E06858B1A0681D
:100A300008B9208A38B1E06808B9608A18B1207D09
:100A400010B9E06900B938BD206A50B10322002115
:100A5000012004F011FD216A0860206A006800B9D5
:100A6000F1E7207DB0B9A069A0B12D480090002326
:100A70001A462CA0E16905F03DFBA1690860A06958
:100A8000006838B9206A006818B1216A086804F063
:100A900077F9D8E7206840686168884205D0D4E9D2
:100AA00000104860206801F059FC002084F8240000
:100AB000A068A062A068E062E0682063E06860630C
:100AC000206800681C49884202D11C4804601EE06E
:100AD000206800681A49884202D11848446016E02C
:100AE000206800681749884202D1144884600EE0EB
:100AF000206800681449884202D11048C46006E0AA
:100B0000206800681149884201D10C480461A0683E
:100B100020B101220E49206801F0C6FC00BF92E717
:100B2000B50B000848414C205541525420524543D2
:100B3000562054494D45520000380140A42D002054
:100B40000044004000480040004C0040005000407D
:100B50008800002030B503460C46186820B198681C
:100B600008B9188A00B10AB9002030BDD3E90A05D6
:100B7000A84201D10020F8E7002114E0D86A0078EB
:100B80006054D86A401CD8621D8A98682844DD6A7F
:100B9000A84201D89868D862D3E90A05A84200D1D2
:100BA00003E0481C81B29142E8DB00BF481C80B2E0
:100BB000DBE7000070B5054600242DE0184850F82A
:100BC000240000B926E0164850F824008069006827
:100BD000A8421ED1124850F82400007DC8B9012057
:100BE0000F4951F8241081F824000D4850F82400D2
:100BF000006A68B10A4850F82400006A006838B1F9
:100C0000074951F82410096A0868002104F04CFFD4
:100C100004E000BF601CC4B2052CCFDB00BF70BD78
:100C2000A42D00202DE9F04104460E461746206809
:100C300020B1E06808B9608A00B10FB9BDE8F08161
:100C40004FF000081FE0D4E90C10401E814206D08E
:100C5000618A606B0844401E216B884200D114E019
:100C600016F8010B216B0870206B401C2063618A11
:100C7000E0680844216B884201D8E068206308F1ED
:100C800001001FFA80F8B845DDDB00BF206801F0E5
:100C9000B6FA21282AD0206801F0B1FA232825D0FD
:100CA000D4E90C01884204D9208EA18E401A85B265
:100CB0000BE0D4E90C01884206D2A089618A08447D
:100CC000A18E401A85B200E000257DB12A46616BF5
:100CD000206801F0D7FC606B28446063618AE0689B
:100CE0000844616B884201D8E068606300BFA5E7F3
:100CF00070B505460C462046FFF7F0FA86B232463C
:100D000021462846FFF78EFF70BD000008B5354824
:100D1000FFF77EFE00BF3349096A00235A1E0868A8
:100D2000194604F047FC0128F5D1002500260020D3
:100D30000090002400BF012269462A48FFF70AFFFD
:100D40000546002D4AD09DF80010274802F01CF8F7
:100D50000646002E42D0254A3146234801F0B6FE11
:100D600000909DF80000002838D02048807810F0CE
:100D7000400F1CD01D4842791DA10020FFF7D6FD71
:100D80001A4882791DA10020FFF7D0FD002409E058
:100D90001648C01D035D22461CA10020FFF7C6FDBA
:100DA000601CC4B211480079A042F1DC16E01CA11D
:100DB0000020FFF7BBFD00240CE00C48383050F851
:100DC0002430203830F8142016A10020FFF7AEFDA3
:100DD000601CC4B205480079A042EEDC002DAAD107
:100DE00099E70000CC000020F8380020F83C0020F3
:100DF00053746174653A2025303258004672616D33
:100E000065204572723A20253032580052656720BD
:100E10004F70204572725B25645D3A202530325850
:100E2000000000005265672049443A2025642C20C8
:100E300056616C75653A2025640000002DE9F0418B
:100E4000044600270026002514B90120BDE8F081E2
:100E500094F83C0028B9002084F83D00204600F0BA
:100E6000A1F8022084F83C002068006820F002000D
:100E7000216808602068006840F00100216808606F
:100E800000F036FB06460EE000F032FB801B0A281D
:100E900009D9032084F83C0000BF002084F83D00FD
:100EA00000BF0320D2E72068406810F0010FEBD0AC
:100EB0002068406810F0010F66D0A069012802D1B7
:100EC00045F0800501E025F08005E069012802D1A8
:100ED00045F0400501E025F04005206A012802D1D7
:100EE00045F0200501E025F02005606A012802D1C7
:100EF00045F0100501E025F01005A06A012802D197
:100F000045F0080501E025F00805E06A012802D156
:100F100045F0040501E025F004052068006820F094
:100F2000FC00284321680860D4E9020108432169D4
:100F30000843616908436168491E08432168C86124
:100F40002068006820F001002168086000F0D0FAF5
:100F500006460EE000F0CCFA801B0A2809D90320CF
:100F600084F83C0000BF002084F83D0000BF03204F
:100F70006CE72068406810F0010FEBD120684068F2
:100F800010F0010F00D10127012F06D100202064AD
:100F9000012084F83C00002058E7042084F83C003D
:100FA000012053E710B586B00446194920688842ED
:100FB0002CD100BF1748C06940F000701549C861C6
:100FC0000846C06900F00070019000BF00BF88159E
:100FD000029000200390049002A90F4800F0F4F85A
:100FE0004FF400700290022003900320059002A9A4
:100FF000094800F0E9F800BF0849486820F4C040FB
:1010000040F0E06040F48040486000BF06B010BD92
:101010000064004000100240000C0140000001404C
:1010200070B50446002594F82100022803D004205E
:10103000A0630125C1E02068006820F00E0021684F
:1010400008602068006820F00100216808605C49A1
:101050002068884252D95A4978392068884201D19B
:10106000012047E0564964392068884201D11020A8
:1010700040E0534950392068884201D1801539E059
:101080004F493C392068884201D1801432E04C49F4
:1010900028392068884202D14FF480302AE048493C
:1010A00014392068884202D14FF4801022E044496C
:1010B0002068884201D140041CE0424920688842EF
:1010C00001D1012016E03F4914312068884201D146
:1010D00010200FE03B4928312068884201D180155B
:1010E00008E038493C312068884201D1801401E091
:1010F0004FF480303349091F086051E03049783996
:101100002068884201D1012047E02D4964392068D8
:10111000884201D1102040E0294950392068884296
:1011200001D1801539E026493C392068884201D137
:10113000801432E0224928392068884202D14FF4D5
:1011400080302AE01E4914392068884202D14FF4C9
:10115000801022E01A492068884201D140041CE036
:1011600018492068884201D1012016E01549143140
:101170002068884201D110200FE0124928312068F0
:10118000884201D1801508E00E493C312068884230
:1011900001D1801401E04FF4803009498039486062
:1011A000012084F8210000BF002084F8200000BF47
:1011B000606B10B12046616B8847284670BD000007
:1011C00080000240080402402DE9F847034600244D
:1011D000002000258446002700226EE14FF0010820
:1011E00008FA02F4D1F8008008EA0400A0427DD198
:1011F000DFF8D0A2D1F80480A8EB0A09D0453AD094
:1012000014DCB8F1030F50D009DCB8F1000F31D075
:10121000B8F1010F1CD0B8F1020F49D120E0B8F1AC
:10122000110F18D0B8F1120F42D11EE0B9F5881F86
:1012300025D006DCB9F5803F20D0B9F5801F37D125
:101240001AE0B9F5001F18D0B9F5041F30D117E026
:10125000D1F80CC02DE0D1F80C8008F1040C28E086
:10126000D1F80C8008F1080C23E0D1F80C8008F1CB
:101270000C0C1EE000BF00BF00BF00BF00BF00BFDE
:10128000D1F80880B8F1000F02D14FF0040C0BE048
:10129000D1F80880B8F1010F03D14FF0080C1C61A0
:1012A00002E04FF0080C5C6103E04FF0000C00E03E
:1012B00000BF00BFFF2801D8984601E003F10408F1
:1012C0004646FF2802D84FEA820803E0A2F1080848
:1012D0004FEA88084746D6F800804FF00F0909FA10
:1012E00007F928EA09080CFA07F900E088E048EA5B
:1012F0000908C6F80080D1F8048008F08058B8F1D9
:10130000805F7DD100BFDFF8C081D8F8188048F039
:101310000108DFF8B491C9F81880C846D8F81880D9
:1013200008F00108CDF8008000BF00BF4FEAB938CF
:101330004FEA920958F829504FEA82784FEA187913
:101340004FF00F0808FA09F825EA0805DFF87C8154
:10135000434502D14FF0000816E0DFF874814345A1
:1013600002D14FF001080FE0DFF86881434502D158
:101370004FF0020808E0DFF86081434502D14FF0EA
:10138000030801E04FF004084FEA82794FEA197927
:1013900008FA09F848EA0505DFF840814FEA9209A2
:1013A00048F82950D1F8048008F48038B8F5803F17
:1013B0000AD1DFF82C81D8F8008048EA0008DFF86D
:1013C0002091C9F8008009E0DFF81481D8F8008086
:1013D00028EA0008DFF80891C9F80080D1F80480F5
:1013E00008F40038B8F5003F10D1DFF8F48008F1B8
:1013F0000408D8F8008048EA0008DFF8E49000E02C
:101400005AE009F10409C9F800800DE0DFF8D08046
:1014100008F10408D8F8008028EA0008DFF8C09036
:1014200009F10409C9F80080D1F8048008F4801893
:10143000B8F5801F0ED1DFF8A88008F10808D8F8A9
:10144000008048EA0008DFF8989009F10809C9F817
:1014500000800DE0DFF8888008F10808D8F80080E7
:1014600028EA0008DFF8789009F10809C9F8008037
:10147000D1F8048008F40018B8F5001F0ED1DFF889
:10148000608008F10C08D8F8008048EA0008DFF80E
:10149000509009F10C09C9F800800DE0DFF8408098
:1014A00008F10C08D8F8008028EA0008DFF830902E
:1014B00009F10C09C9F80080521C102AFFF48EAE05
:1014C000BDE8F8870000111000100240000801403C
:1014D000000C0140001001400014014008000140D0
:1014E000000401400AB1016101E00B04036170478F
:1014F000014800687047000014000020034800689D
:101500000349097808440149086070471400002025
:101510001000002010B50848006840F0100006498F
:101520000860032000F0D0F80F2000F007F800F06A
:101530002BF8002010BD00000020024070B50446CA
:101540000E4800784FF47A71B1FBF0F00C4909684D
:10155000B1FBF0F5284600F0F7FC08B1012070BDA2
:10156000102C07D200222146501E00F06FF80548CB
:10157000046001E00120F2E70020F0E71000002005
:10158000180000200C00002008B500BF2648806924
:1015900040F00100244988610846806900F001009C
:1015A000009000BF00BF00BF0846C06940F08050F7
:1015B000C8610846C06900F08050009000BF00BFBD
:1015C000032000F081F8002211466FF00B0000F0BC
:1015D0003DF8002211466FF00A0000F037F80022B3
:1015E00011466FF0090000F031F800221146501F3B
:1015F00000F02CF800221146101F00F027F80022FE
:101600000F21901E00F022F800220F21501E00F042
:101610001DF800BF0549486820F0E06040F0007008
:10162000486000BF08BD00000010024000000140FB
:1016300000BF00F01F020121914042094FF0E0235A
:1016400003EB8202C2F8001100BF70472DE9F05F82
:1016500080460D461646002701F01CFA074639461B
:101660002A46334601F00700C0F1070ABAF1040F19
:1016700002D94FF0040A01E0C0F1070AD14600F197
:10168000040ABAF1070F02D24FF0000A01E0A0F1FC
:10169000030AD4464FF0010A0AFA09FAAAF1010A2C
:1016A0000AEA020A0AFA0CFA4FF0010B0BFA0CFBD9
:1016B000ABF1010B0BEA030B4AEA0B04214640464F
:1016C00001F0F0F9BDE8F09F00BF00F00702064B03
:1016D00019684FF6FF031940044B0B4343EA0221FC
:1016E000014B196000BF70470CED00E00000FA05E7
:1016F00070B504460D4600266148006800F00700FA
:10170000A8420ED25E48006820F0070028435C49DA
:1017100008600846006800F00700A84201D00120D8
:1017200070BD207800F00200022807D155484068BB
:1017300020F0F000A168084352494860207810F07A
:10174000010F5CD06068012806D14E48006810F493
:10175000003F12D10120E3E76068022806D1494822
:10176000006810F0007F08D10120D9E745480068E3
:1017700010F0020F01D10120D2E74248406820F06A
:101780000300616808433F494860FFF7B1FE064621
:101790006068012810D108E0FFF7AAFE801B41F223
:1017A0008831884201D90320BAE73648406800F002
:1017B0000C000428F0D122E06068022810D108E073
:1017C000FFF796FE801B41F28831884201D9032041
:1017D000A6E72C48406800F00C000828F0D10EE085
:1017E00008E0FFF785FE801B41F28831884201D96D
:1017F000032095E72348406810F00C0FF1D12048F2
:10180000006800F00700A8420ED91D48006820F0CB
:10181000070028431A4908600846006800F00700DE
:10182000A84201D001207BE7207800F004000428C2
:1018300007D11448406820F4E060E168084311498A
:101840004860207800F00800082808D10D4840685A
:1018500020F46050216940EAC1000A49486000F064
:101860003DF808494968C1F30311074A515CC84073
:10187000064908600F20FFF761FE002050E70000D6
:1018800000200240001002407C6200081800002086
:1018900001480068704700001800002000B5FFF7FD
:1018A000F7FF04494968C1F30221034A515CC8406B
:1018B00000BD0000001002408C62000800B5FFF778
:1018C000E7FF04494968C1F3C221034A515CC8409B
:1018D00000BD0000001002408C6200082DE9F04FAE
:1018E0008BB03BA2D2E901311068D268CDE9083152
:1018F0000A9207903AA3D3E90020D3E9021304AC7B
:101900000BC403924FF00009CB46CA4600240020C6
:101910000290019000903648D0F8049019F00C0025
:101920004ED0042802D0082849D102E03148029064
:1019300049E007A8C9F38341445C19F4803F38D0DB
:101940002B48C06A00F00F0003A911F800B0284826
:10195000C06A10F4803F21D02548C06AC0F303104C
:10196000401C01902248C06AC0F30320801C0090F4
:101970000198A0FB0B5006461E490098A1FB0021D0
:101980000023A2FB047C01FB04C102FB03112A46D5
:1019900033463846FEF744FC824603E01548604370
:1019A000B0FBFBFA9DF82900A04205D14FEA5A0A84
:1019B00002E0114804FB00FACDF808A003E000BFE4
:1019C0000C48029000BF00BF02980BB0BDE8F08F3A
:1019D000000004050607080900000000000D0000D3
:1019E0000102030405060708090A0B0C0D0E0F106F
:1019F0000010024000127A0000093D00F8B50446CC
:101A00000025207810F0010F75D0F848406800F0EC
:101A10000C0004280CD0F548406800F00C000828A1
:101A200010D1F248406800F48030B0F5803F09D111
:101A3000EE48006810F4003F5DD0A06800285AD13D
:101A40000120F8BD00BFA068B0F5803F06D1E7488F
:101A5000006840F48030E549086028E0A06858B983
:101A6000E248006820F48030E049086008460068D9
:101A700020F4802008601AE0A068B0F5A02F0BD1F8
:101A8000DA48006840F48020D849086008460068B9
:101A900040F4803008600AE0D448006820F48030C8
:101AA000D24908600846006820F48020086000BF22
:101AB000A06880B1FFF71CFD054606E0FFF718FDA2
:101AC000401B642801D90320BBE7C848006810F414
:101AD000003FF3D00FE0FFF70BFD054606E0FFF7F0
:101AE00007FD401B642801D90320AAE7BF4800680E
:101AF00010F4003FF3D1207800F00200022855D105
:101B0000BA48406810F00C0F0AD0B848406800F09E
:101B10000C00082818D1B548406810F4803F13D154
:101B2000B248006810F0020F04D06069012801D0AB
:101B3000012086E7AD48006820F0F800A16940EA7E
:101B4000C100AA49086031E06069E0B10120A849FC
:101B50000860FFF7CDFC054606E0FFF7C9FC401B17
:101B6000022801D903206CE7A048006810F0020F9A
:101B7000F3D09E48006820F0F800A16940EAC10057
:101B80009A49086012E0002099490860FFF7B0FC0C
:101B9000054606E0FFF7ACFC401B022801D90320F4
:101BA0004FE79248006810F0020FF3D1207800F060
:101BB000080008282BD1E069B0B101208D490860E8
:101BC000FFF796FC054606E0FFF792FC401B022853
:101BD00001D9032035E78548406A10F0020FF3D0A1
:101BE000012001F049F912E0002082490860FFF766
:101BF0007FFC054606E0FFF77BFC401B022801D96D
:101C000003201EE77948406A10F0020FF3D12078D4
:101C100000F00400042872D100267448C06910F056
:101C2000805F0ED100BF7148C06940F080506F499D
:101C3000C8610846C06900F08050009000BF00BF36
:101C400001266D48006810F4807F15D16A4800684D
:101C500040F4807068490860FFF74AFC054606E0DA
:101C6000FFF746FC401B642801D90320E9E66248DF
:101C7000006810F4807FF3D000BF2069012806D1EE
:101C80005A48006A40F001005849086227E020697C
:101C900058B95648006A20F00100544908620846C5
:101CA000006A20F00400086219E0206905280BD1C1
:101CB0004E48006A40F004004C4908620846006A39
:101CC00040F0010008620AE04848006A20F0010084
:101CD000464908620846006A20F00400086200BF16
:101CE000206998B1FFF704FC054609E0FFF700FC06
:101CF000401B41F28831884202D90320A1E620E04E
:101D00003A48006A10F0020FF0D011E0FFF7F0FB44
:101D1000054608E0FFF7ECFB401B41F288318842A2
:101D200001D903208DE63148006A10F0020FF1D18D
:101D3000012E05D12D48C06920F080502B49C86183
:101D400000BFE06AA0B32948406800F48030B0F5D5
:101D5000803F0ED12548406800F00C00082808D1CB
:101D60002248C06A00F48030B0F5803F01D10120E4
:101D700067E6E06A02284ED11C48006810F0805FD8
:101D800008D01A48C06A00F0F001606B814201D0AF
:101D9000012056E6002016498866FFF7A9FB054694
:101DA00007E0FFF7A5FB401B642802D9032048E6A3
:101DB0004AE00E48006810F0006FF2D10B48C06A8C
:101DC00020F0F000616B08430849C8620846C06A09
:101DD00020F47060216B08430449C8620120044963
:101DE0008866FFF785FB05460FE000000010024003
:101DF000000042428004424200700040FFF778FB3E
:101E0000401B642801D903201BE64348006810F0FA
:101E1000006FF3D018E04048C06A20F480303E499B
:101E2000C86200203D498866FFF762FB054606E070
:101E3000FFF75EFB401B642801D9032001E636480A
:101E4000006810F0006FF3D1206AE8B332484068B0
:101E500000F00C0008285BD0206A022844D1002042
:101E60002E490866FFF744FB054606E0FFF740FBF6
:101E7000401B022801D90320E3E52748006810F041
:101E8000007FF3D1606AB0F5803F0DD12248C06A6F
:101E9000616808432049C8620846C06A20F00F0004
:101EA000E16808431C49C862D4E9090108431A499A
:101EB000496821F474110843174948600120174903
:101EC0000866FFF715FB00E024E0054606E0FFF793
:101ED0000FFB401B022801D90320B2E50E48006821
:101EE00010F0007FF3D015E000200C490866FFF7E2
:101EF000FFFA054606E0FFF7FBFA401B022801D96E
:101F000003209EE50448006810F0007FF3D101E053
:101F1000012096E5002094E50010024000004242B6
:101F2000042808D14FF0E021096941F004014FF085
:101F3000E022116107E04FF0E021096921F004017E
:101F40004FF0E0221161704770B504462546681EC7
:101F5000B0F1807F01D301200FE0681E4FF0E02137
:101F600048610F214FF0FF3000F09CFD00204FF042
:101F7000E021886107200861002070BD704770472C
:101F8000024600BF92F83C00012801D102207047B0
:101F9000012082F83C0000BF022082F83D0010685A
:101FA000406820F0700013685860106840680B6843
:101FB0001843136858601068806820F08000136828
:101FC0009860106880684B68184313689860012017
:101FD00082F83D0000BF002082F83C0000BF00BF37
:101FE000D5E710B504460CB9012010BD94F83D00AA
:101FF00028B9002084F83C00204600F00DF80220AB
:1020000084F83D00211D206800F0E2FF012084F8E3
:102010003D000020E9E7000038B504460D4920687E
:10202000884215D100BF0C48C06940F010000A4931
:10203000C8610846C06900F01000009000BF00BFF2
:10204000002208213620FFF701FB3620FFF7F0FAC7
:1020500038BD00000010004000100240704710B56D
:10206000044620680069C0F34000D8B12068C06809
:10207000C0F34000B0B16FF0020021680861012098
:1020800020772068806910F0030F03D02046FFF707
:10209000E5FF05E0204600F0ADF8204600F0ABF883
:1020A0000020207720680069C0F38000D8B1206844
:1020B000C068C0F38000B0B16FF00400216808610F
:1020C000022020772068806910F4407F03D02046EA
:1020D000FFF7C4FF05E0204600F08CF8204600F032
:1020E0008AF80020207720680069C0F3C000D8B1CA
:1020F0002068C068C0F3C000B0B16FF0080021686C
:102100000861042020772068C06910F0030F03D015
:102110002046FFF7A3FF05E0204600F06BF82046BD
:1021200000F069F80020207720680069C0F30010F3
:10213000D8B12068C068C0F30010B0B16FF01000D3
:1021400021680861082020772068C06910F4407F6A
:1021500003D02046FFF782FF05E0204600F04AF852
:10216000204600F048F8002020772068006910F031
:10217000010F0BD02068C06810F0010F06D06FF07F
:10218000010021680861204600F036F820680069E7
:10219000C0F3C01058B12068C068C0F3C01030B19F
:1021A0006FF08000216808612046FFF7E7FE206895
:1021B0000069C0F3801058B12068C068C0F3801077
:1021C00030B16FF0400021680861204600F015F83A
:1021D00020680069C0F3401058B12068C068C0F39F
:1021E000401030B16FF02000216808612046FFF7F1
:1021F000C6FE10BD70477047704770477047014674
:102200000022002391F8392091F83A3042EA030085
:10221000704700002DE9F0470446206805682068F3
:10222000C668206847694FF00008C14605F00F08EE
:10223000B8F1000F0AD115F0200F07D016F0200FCB
:1022400004D0204600F040FFBDE8F087B8F1000F51
:102250006CD017F0010F02D116F4907F66D015F004
:10226000010F06D016F4807F03D0E06B40F0010030
:10227000E06315F0040F06D017F0010F03D0E06BF8
:1022800040F00200E06315F0020F06D017F0010FD6
:1022900003D0E06B40F00400E06315F0080F06D0B7
:1022A00017F0010F03D0E06B40F00800E063E06B33
:1022B00068B315F0200F05D016F0200F02D020468D
:1022C00000F002FF20684069C0F38019E06B10F055
:1022D000080F02D1B9F1000F22D0204600F0D4FE41
:1022E0002068406910F0400F16D02068406920F047
:1022F000400021684861606B50B11748616B4863CA
:10230000606BFEF78DFE10B1606B416B88470CE08F
:102310002046FFF773FF08E02046FFF76FFF04E059
:102320002046FFF76BFF0020E0638DE715F0800F7C
:1023300006D016F0800F03D0204600F0FDFF83E7A3
:1023400015F0400F06D016F0400F03D0204600F0E5
:10235000ABFE79E700BF77E77530000810B504469B
:102360000CB9012010BDA06900B100E000BF94F8D5
:10237000390028B9002084F83800204600F028F8F9
:10238000242084F839002068C06820F400502168B7
:10239000C860204600F0ECFE2068006920F4904000
:1023A000216808612068406920F02A00216848619E
:1023B0002068C06840F400502168C8600020E063D5
:1023C000202084F8390084F83A000020CAE7000091
:1023D00010B586B004462F49206888422AD100BF34
:1023E0002D48C06940F400202B49C8610846C069E7
:1023F00000F40020019000BF00BF081502900220E9
:1024000003900320059002A92448FEF7DDFE4FF457
:102410000060029000200390049002A91F48FEF77C
:10242000D3FE002206213420FFF710F93420FFF7F5
:10243000FFF82CE01A492068884228D100BF1648CE
:10244000C06940F480101449C8610846C06900F4AE
:102450008010019000BF00BF8814029002200390FA
:102460000320059002A90D48FEF7AEFE042002905D
:1024700000200390049002A90A48FEF7A5FE00225E
:1024800007213520FFF7E2F83520FFF7D1F806B035
:1024900010BD0000004C0040001002400010014040
:1024A000005000400014014010B5034693F83A0074
:1024B00020282FD101B10AB9012010BD00BF93F827
:1024C0003800012801D10220F7E7012083F8380005
:1024D00000BF99629A85DA850020D863222083F8AC
:1024E0003A0000BF002083F8380000BF1868C068B9
:1024F00040F480701C68E0601868406940F001009A
:102500001C6860611868C06840F020001C68E060CA
:102510000020D2E70220D0E7F8B50546002400BF2E
:10252000A6E0564850F8240000B99FE0534850F800
:1025300024000068A84271D1504850F82400008A55
:1025400020B14E4850F82400806800B9F8BD4B48CF
:1025500050F82400806838B1484951F8241001220D
:1025600008684749FFF7A0FF444850F82400816AF3
:10257000424850F82400C06A401E814274D03F484F
:1025800050F82400C06A3D4951F82410098A0844D3
:10259000401E3A4951F82410896A884264D038486C
:1025A0000078364951F82410896A0870334850F889
:1025B0002400806A401C314951F8241088622F4859
:1025C00050F8240080682D4951F82410098A0844E5
:1025D0002A4951F82410896A884207D8274850F8B8
:1025E00024008068254951F824108862234850F857
:1025F0002400007D10B1012834D110E003F09AFBD3
:10260000064600201D49009051F8241089690023D6
:1026100032460868072103F0C5FD24E025E017488D
:1026200050F82400407D16490978884218D10120CD
:10263000124951F8241081F82400104850F8240061
:10264000006A68B10D4850F82400006A006838B18B
:102650000A4951F82410096A0868002103F024FA95
:1026600001E001E000BF00BF05E000BF601CC4B294
:10267000052CFFF656AF00BF00BF67E7A42D002072
:102680008800002010B5034693F83900202823D194
:1026900001B10AB9012010BD00BF93F8380001282C
:1026A00001D10220F7E7012083F8380000BF19624A
:1026B0009A84DA840020D863212083F8390000BF8F
:1026C000002083F8380000BF1868C06840F0800020
:1026D0001C68E0600020DEE70220DCE770B50646FB
:1026E0000024002500BF7AE03F4850F8240000B9DC
:1026F00073E03D4850F824000068B0426CD13A497C
:1027000051F824100868FFF77AFD212864D0364973
:1027100051F824100868FFF772FD23285CD0324876
:1027200050F82400006B304951F82410496B88425E
:102730000AD92D4850F82400008E2B4951F8241056
:10274000898E401A85B21AE0274850F82400006BA1
:10275000254951F82410496B88420FD2224850F87D
:1027600024008089204951F82410498A08441E49D0
:1027700051F82410898E401A85B200E0002555B327
:10278000194A52F82420516B174A52F82420106835
:102790002A46FFF777FF144850F82400406B28447E
:1027A000114951F8241048630F4850F82400C068BC
:1027B0000D4951F82410498A08440B4951F8241056
:1027C000496B884207D8084850F82400C068064979
:1027D00051F82410486304E000BF601CC4B2052C0B
:1027E00082DB00BF70BD0000A42D002000BFFEE70B
:1027F00010B50C480C4908601020486000210A48B8
:102800008160C160016141618161C16101624162B8
:102810008162C162FEF712FB18B14F2103A000F0E4
:10282000C2FD10BD006400400C0100202E2E2F536D
:1028300072632F63616E2E630000000000B595B0D7
:102840001C2212490EA8FDF737FD00210EA801F049
:10285000F0FB0F4908601C220C491C3107A8FDF74A
:102860002BFD002107A801F0E4FB0A4908601C22A7
:10287000064938316846FDF71FFD0021684601F022
:10288000D8FB0549086015B000BD000028620008AB
:1028900000000020040000200800002000B585B0E2
:1028A00000BF3848806940F010003649886108460A
:1028B000806900F01000009000BF00BF00BF084614
:1028C000806940F0400088610846806900F040005F
:1028D000009000BF00BF00BF0846806940F00400C0
:1028E00088610846806900F00400009000BF00BFC6
:1028F00000BF0846806940F0200088610846806972
:1029000000F02000009000BF00BF00BF08468069B3
:1029100040F0080088610846806900F008000090D7
:1029200000BF00BF00224FF478411748FEF7DAFDE0
:102930003020019000200290039001A91348FEF777
:1029400043FC4FF478400190012002900020039056
:102950000220049001A90C48FEF736FCF0200190FB
:1029600000200290039001A90948FEF72DFC4020A9
:10297000019002200290049001A90648FEF724FC71
:1029800005B000BD001002400018014000100140D9
:1029900000140140000C01401CB5104810490860AB
:1029A00041F61F40486000210D4881600921C16047
:1029B00080218161FFF715FB18B1472109A000F0C4
:1029C000F2FC00200090019069460548FFF7D8FA14
:1029D00018B14E2103A000F0E6FC1CBD0010004021
:1029E000F41A00202E2E2F5372632F74696D2E63FC
:1029F0000000000010B50C480C4908604FF4E130AD
:102A00004860002109488160C16001610C21416179
:102A100000218161C161FFF7A1FC18B14C2104A024
:102A200000F0C1FC10BD0000004C0040341B002031
:102A30002E2E2F5372632F75736172742E630000F4
:102A400010B50C480C4908604FF4E1304860002193
:102A500009488160C16001610C21416100218161EF
:102A6000C161FFF77BFC18B15E2104A000F09BFC64
:102A700010BD000000500040741B00202E2E2F536C
:102A800072632F75736172742E63000000BFFEE7DE
:102A90007047000002480068C0F302207047000041
:102AA0000CED00E010B5002807DA0A07140E054AFD
:102AB00000F00F031B1FD45403E00A07130E024A51
:102AC000135410BD18ED00E000E400E02DE9F041E2
:102AD00005460E4614460027B84628785A2806D0E0
:102AE000A07940F04000A0713846BDE8F081701E2A
:102AF000285CC32805D0A07940F04000A07138467A
:102B0000F3E7687800F00F00401C207128785A28FD
:102B100011D1687800F04000402804D12079C01D10
:102B200000F0FF0807E0207900EB4000052101EBF1
:102B3000400000F0FF08B04505D0A07940F040000B
:102B4000A0713846D1E7B01E81B2681CFDF764FE63
:102B500028B1A07940F08000A0713846C5E72878F8
:102B6000A52809D028785A2806D1F01E81B222461D
:102B7000284600F003F807463846B6E770B5034626
:102B80000C46002000211D7815705D7805F0400589
:102B9000402D18D195709D785571DD78957100BFE5
:102BA0000DE04D00ED1C5E5D4D00AD1C5D5D46EA27
:102BB000052602F1180525F811604D1CE9B21579BA
:102BC0008D42EEDC36E00025957000212FE001EB10
:102BD00041056D00ED1C5E5D01EB41056D00AD1C16
:102BE0005D5D46EA052602F1180525F8116001EB46
:102BF00041056D002D1D5D5D2E0601EB41056D004B
:102C00006D1D5D5D46EA054601EB41056D00AD1D9C
:102C10005D5D46EA052501EB41067600F61D9E5DE9
:102C2000354302F1380646F821504D1CE9B21579BA
:102C30008D42CCDC012070BD2DE9F04705460E46E3
:102C40004FF00009C84600273079102801DC3079A0
:102C500010B94846BDE8F087A5202870B07810F07C
:102C6000400F1ED040206870002412E006F11800CA
:102C700030F814000012022101EB4401685406F1FF
:102C8000180010F81400032101EB44016854601C83
:102C9000C4B23079A042E9DC3079012101EB400770
:102CA00050E000206870002443E006F1180030F87E
:102CB0001400001204EB4401022202EB41016854AB
:102CC00006F1180010F8140004EB4401032202EB93
:102CD0004101685406F1380050F82400000E04EB5E
:102CE0004401042202EB4101685406F1380050F817
:102CF0002400C0F3074004EB4401052202EB41012C
:102D0000685406F1380030F82400C0F3072004EBC3
:102D10004401062202EB4101685406F1380010F824
:102D2000240004EB4401072202EB41016854601CBB
:102D3000C4B23079A042B8DC307900EB4000012108
:102D400001EB400768783179491E01F00F01084313
:102D50006870707818B1687840F080006870394603
:102D6000681CFDF759FD80464FEA2821781C29543C
:102D7000B81C05F80080C321F81C2954381D1FFA1F
:102D800080F9484666E7000030B502460020304B27
:102D90001B7823B1012B0CD0022B4ED127E05A29EE
:102DA00006D15A23137001232A4C2380284C237008
:102DB0004BE0284B1C881B885B1C264D2B80115533
:102DC00011F0400F05D001F00F030833224C23808F
:102DD00009E001F00F035B1C03EB4303052404EB44
:102DE00043031D4C23800223194C23702DE0194B03
:102DF0001C881B885B1C174D2B8011552B461B888C
:102E0000154C2488A34206DD00232C462380124C57
:102E100023800F4C2370C3290ED10E4B1B880E4C00
:102E20002488A34208D10C4B18880023094C238026
:102E3000094C2380064C237007E00023054C2380B7
:102E4000054C2380024C237000BF00BF30BD000042
:102E50001C0000201E0000202000002011B1402294
:102E6000827001E000228270704711B1012242702D
:102E700001E000224270704708B508490968C90896
:102E80004FF47A72B1FBF2F14143009100BF00BFF1
:102E900000994A1E00920029F9D108BD18000020AF
:102EA00000BF012001F0ACF8FBE710B5FEF726FBF0
:102EB00001F0B7F810BD000010B594B001200690E5
:102EC000000408900020099001200B90002007903A
:102ED00002200E90C1030F914FF4E01110910020D9
:102EE000119006A8FEF78AFD18B1A42116A000F0E3
:102EF0005AFA0F20019002200290002003904FF414
:102F00008060049000200590022101A8FEF7F0FBEC
:102F100018B1B2210CA000F046FAFEF7B9FC4FF44C
:102F20007A71B0FBF1F42046FFF70EF80420FEF7AB
:102F3000F7FF01200849086700220F21801EFEF7D5
:102F400085FB14B010BD00002E2E2F5372632F6D21
:102F500061696E2E63000000000042421448006860
:102F600040F00100124908600846406811490840D5
:102F70000F494860084600680F4908400C4908603E
:102F80000846006820F4802008600846406820F465
:102F9000FE0048600846006820F0A05008604FF42A
:102FA0007F0088600020C862C80304490860704739
:102FB000001002400000FFF0FFFFF6FE08ED00E009
:102FC00010B50248FFF74BF810BD0000F41A0020BE
:102FD000002202681B4B98420BD0B0F1804F08D002
:102FE000194B984205D0194B984202D0184B984281
:102FF00003D122F070024B681A43124B98420BD057
:10300000B0F1804F08D0104B984205D00F4B98423A
:1030100002D00F4B984203D122F44072CB681A437E
:1030200022F080024B691A4302608B68C3620B680E
:103030008362044B984201D10B690363012343610E
:1030400070470000002C01400004004000080040D0
:10305000000C004010B50248FFF7DCF810BD00007E
:10306000341B002010B50248FFF7D4F810BD000053
:10307000741B002070B505466C6A0020E085E08472
:103080002046FFF7BBF870BD0168C96821F4907154
:103090000268D1600168496921F00101026851614B
:1030A000202180F83A10704710B504462068C068A7
:1030B00020F040002168C860202084F839002046B4
:1030C000FFF70CFB002010BD70B5044694F83A00E1
:1030D00022284BD1A068B0F5805F13D1A56A206982
:1030E00040B920684068C0F308002880A06A801CAE
:1030F000A06219E020684068C0B22880A06A401C25
:10310000A06211E0206938B920684068C1B2A26AA3
:10311000501CA062117007E02068406800F07F0139
:10312000A26A501CA0621170E08D401E0004000CC9
:10313000E08519D12068C06820F020002168C860AF
:103140002068C06820F480702168C86020684069E9
:1031500020F0010021684861202084F83A002046D0
:10316000FFF7DAF9002070BD0020FCE70220FAE743
:103170002DE9F041044600252068006920F4405004
:10318000E1680843216808612169A0680843616912
:10319000084305432068C06841F20C618843284316
:1031A0002168C8602068406920F44070A169084324
:1031B000216848615F49206888425CD1FEF77EFB48
:1031C00000EBC00101EB001061688900B0FBF1F673
:1031D000FEF774FB00EBC00101EB00106168890091
:1031E000B0FBF1F06421B0FBF1F000EBC00101EBAA
:1031F0000010A6EB8000322101EB00106421B0FB2F
:10320000F1F000F0F006FEF759FB00EBC00101EB16
:10321000001061688900B0FBF1F06421B0FBF1F0AF
:1032200006EB0016FEF74AFB00EBC00101EB0010B5
:1032300061688900B0FBF1F7FEF740FB00EBC001CD
:1032400001EB001061688900B0FBF1F06421B0FB74
:10325000F1F000EBC00101EB0010A7EB8000322180
:1032600001EB00106421B0FBF1F000F00F003044DE
:10327000216888605BE0FEF711FB00EBC00101EB09
:10328000001061688900B0FBF1F6FEF707FB00EB68
:10329000C00101EB001061688900B0FBF1F064210E
:1032A000B0FBF1F000EBC00101EB0010A6EB8000D9
:1032B000322101EB00106421B0FBF1F000F0F006C8
:1032C000FEF7ECFA00EBC00101EB00106168890029
:1032D000B0FBF1F06421B0FBF1F006EB0016FEF755
:1032E000DDFA00EBC00101EB001061688900B0FB62
:1032F000F1F7FEF7D3FA00EBC00101EB00106168B3
:103300008900B0FBF1F06421B0FBF1F000EBC001EB
:1033100001EB0010A7EB8000322101EB00106421CB
:10332000B0FBF1F000F00F00304421688860BDE888
:10333000F081000000380140014691F83900212851
:103340002DD18868B0F5805F0FD10A6A1088C0F36C
:1033500008000B685860086918B9086A801C086280
:1033600009E0086A401C086205E00B6A581C086204
:1033700018780B685860C88C401E0004000CC88484
:103380000BD10868C06820F080000B68D86008681E
:10339000C06840F040000B68D860002070470220F1
:1033A000FCE700BFFEE700BFFEE700000FB4054BDF
:1033B00010B503A9044A029800F0ECF810BC5DF8BF
:1033C00014FB0000153D0008080100200FB4084B55
:1033D00010B504A902AA039800F0DCF8044602A97B
:1033E000002000F085FC204610BC5DF814FB0000B6
:1033F000F13C00087CB5491E1C461546CDE900018C
:10340000044B6A462146284600F0C4F8009A002181
:1034100011707CBDDB3C000802E008C8121F08C127
:10342000002AFAD170477047002001E001C1121F45
:10343000002AFBD1704700002DE9FF5FDDE9022083
:10344000010DDDF838B0024310D10F9801244CA2D1
:10345000012808D0002100980F9BC0E90021C0E995
:103460000243BDE8FF9F6FEA0B01F4E7A1F2FF31D1
:1034700044F6105041430D140F9801280ED0A5EBCF
:103480000B00401C4FF000043E4EDFF8FC90B0F102
:10349000000AA04605DACAF1000717E0CBF10000E8
:1034A000F0E7074612E0F80707D0224633464046C9
:1034B0004946FCF7F3FF80468946224633461046CC
:1034C0001946FCF7EBFF04460E467F10002FEAD1A9
:1034D000DDE90201BAF1000F42464B4602DAFCF781
:1034E000DDFF01E0FDF74CF804460E460022274BB5
:1034F000FDF7CEF803D84FF0FF30014607E0002279
:10350000234B20463146FCF722FFFDF7A8F8102494
:1035100009E0002C0ADB0A220023FCF781FE019B54
:1035200030321A55641E50EA0102F2D1641C019A2D
:10353000C4F1110314440F9A012A09D0012208434F
:1035400001D15B450FDD4FF0000205F101050DE0F3
:10355000084303D1A3EB0B056D1E09E000204FF0DB
:10356000110B0F9088E701DA00226D1E002A83D02C
:1035700000980F99C0E90231C0E9004571E70000E9
:1035800030000000000024400000F03F0000F04345
:103590000000E03F2DE9FF4F95B09B468946064667
:1035A000002512E2252878D10024761CF94A274606
:1035B000012105943378203B01FA03F0104202D038
:1035C0000443761CF6E730782A2811D06FF02F03D9
:1035D0003078A0F13002092A16D8059A44F0020486
:1035E00002EB820203EB42021044761C0590EFE7E7
:1035F00059F8042B0592002A03DA504244F400548F
:10360000059044F00204761C30782E2816D116F866
:10361000010F44F004042A280DD06FF02F023078F7
:10362000A0F13003092B09D807EB870302EB430312
:10363000C718761CF3E759F8047B761C30786C28A1
:103640000FD006DC4C2817D068280DD06A2814D17A
:1036500004E0742810D07A280FD10DE044F400144F
:103660000AE044F4801401E044F440147278824289
:1036700002D1761C04F58014761C307866280BD0B5
:1036800013DC582877D009DC002875D04528F6D0FF
:103690004628F4D047281AD19FE118E0632835D096
:1036A000642879D0652812D197E1702873D008DC9E
:1036B0006728F1D069286FD06E280DD06F2806D109
:1036C000B5E073282CD0752875D0782874D05A4668
:1036D000179990476D1C76E1C4F30250022809D077
:1036E00003280DD0D9F8001004280DD00D6009F181
:1036F000040968E1D9F80010EA17C1E90052F6E7B9
:10370000D9F800100D80F2E70D70F0E719F8041BEE
:103710008DF8001000208DF80100EA46012003E03A
:1037200059F804AB4FF0FF3061074FF0000102D4AD
:103730000DE008F101018846B9420FDA8045F8DB57
:103740001AF808100029F4D108E008F101018846B0
:103750008142FADB1AF808100029F6D105985B4679
:10376000A0EB080721463846179A00F09EFA284435
:1037700000EB080507E04DE02BE10DE01AF8010B26
:103780005A4617999047B8F10108F7D25B4621468F
:103790003846179A14E142E00A220092C4F302521A
:1037A0004FF0000A022A08D059F804CB032A4FEA46
:1037B000EC710AD00DE029E02AE009F1070121F0BF
:1037C0000702F2E802C1914609E00FFA8CFC4FEAC9
:1037D000EC71042A03D14FFA8CFC4FEAEC710029FA
:1037E00007DA0A460021DCF1000C61EB02012D2210
:1037F00002E0220504D52B228DF80420012203E0EB
:10380000E20701D02022F7E7904653E00A2102E0C8
:1038100010220DE010214FF0000A00910BE0102261
:103820004FF0000A44F004040827009203E0082245
:103830004FF0000A0092C4F30252022A05D059F850
:1038400004CB0021032A08D009E009F1070121F087
:103850000702F2E802C1914605E01FFA8CFC042A37
:1038600001D10CF0FF0C4FF00008220722D5702880
:1038700027D0009B83F0100353EA0A0309D15CEAC6
:10388000010206D030228DF804208DF805000222B6
:103890009046009B83F0080353EA0A030AD15CEACE
:1038A000010201D1620705D530228DF804204FF0C6
:1038B00001087F1E582809D037A003900EA8029057
:1038C00013E040228DF804200122E1E737A0F4E75D
:1038D00053466046009AFCF7A3FC84460398825C3A
:1038E0000298A0F10100029002705CEA0100EFD1A1
:1038F000029806A9A1EB000000F1200A600702D59A
:1039000024F4803400E00127574502DDA7EB0A00CC
:1039100000E0002000EB0A01009005984144A0EB74
:1039200001000590E00306D45B462146179A0598EE
:1039300000F0BBF90544002706E001A85A46C05D27
:10394000179990476D1C7F1C4745F6DBE0030CD5AB
:103950005B462146179A059800F0A7F9054404E054
:1039600030205A46179990476D1C0099481E0090C8
:103970000029F5DC08E0029802995A460078491CB3
:103980000291179990476D1CBAF10001AAF1010A42
:10399000F1DC6BE109280100303132333435363740
:1039A000383961626364656600000000303132338B
:1039B000343536373839414243444546000000002B
:1039C00000F060F9054406F10106307800287FF424
:1039D000E9AD19B02846BDE8F08F620700D406278C
:1039E00009F1070222F0070CFCE80223E14603F08C
:1039F00000485FEA080C02D00FF27C2C0DE05FEA71
:103A0000045C02D50FF2742C07E05FEAC47C02D09C
:103A10000FF26C2C01E0AFF2700C4FF0FF3823F086
:103A20000043CDF850C065280CD006DC452809D0ED
:103A300046281DD047283ED13EE0662818D067288A
:103A400039D139E00021112F01DB112000E0781C71
:103A5000CDE9000106A90EA8FFF7EEFCDDE90F0194
:103A60000E9A03910021009207F1010A04914EE0A1
:103A70004FF000400097CDE9011006A90EA8FFF70E
:103A8000DBFCDDE90F0203920E9B11990022DDF8A9
:103A90000CA00093049219B907F1010100EB010A8F
:103AA000B7EB0A0004D4C0F1FF3007F1010A04901B
:103AB000AAEB0700019046E0012F00DA0127002160
:103AC000112F01DD112000E03846CDE9000106A9E3
:103AD0000EA8FFF7B1FCDDE90F010E9A039100215A
:103AE00004910092BA4621070CD40399514500DA9B
:103AF0008A46BAF1010F05DD009AAAF10101515C75
:103B0000302908D0B84202DA10F1040F06DA012198
:103B1000CDE9011017E0AAF10101E9E7002805DC71
:103B2000049901440491AAEB000102E0411C5145B3
:103B300000DD8A460499A0EB010000F1010001902C
:103B40004FF000400290200704D40198504501DB5B
:103B5000CDF8048000208DF84F0002980DF14F073A
:103B6000B0F1004F25D02B200E9002984FF00208A4
:103B700000280CDA404202902D200E9007E00A2126
:103B80000298FCF7BFFB3031029007F8011DB8F135
:103B90000001A8F10108F2DC02980028EFD1791E9B
:103BA0000E980870307800F0200040F0450007F8CB
:103BB000020D12A8A0EB070000F107081498007886
:103BC00000B1012000EB0A01019801EBE0710598BA
:103BD0004144A0EB0100A0F101000590E00306D4F0
:103BE0005B462146179A059800F05FF80544149843
:103BF000007820B15A461799904705F10105E00376
:103C000023D55B462146179A059800F04EF80544E7
:103C10001BE00498002807DBDDE90301884203DD8F
:103C20000098405C179901E0179930205A46904758
:103C300004986D1C401C04900198401E019004D112
:103C40002E205A46179990476D1CBAF10001AAF12F
:103C5000010ADEDC05E017F8010B5A461799904778
:103C60006D1CB8F10001A8F10108F4DC5B462146A7
:103C7000179A0598A4E600002D0000002B00000014
:103C8000200000002DE9F041044600251E4617469D
:103C9000880405D406E039462020B04705F1010527
:103CA000641EF8D52846BDE8F0812DE9F0410446B0
:103CB00000251E469046C80301D5302700E0202786
:103CC000880405D506E041463846B04705F10105B0
:103CD000641EF8D52846BDE8F0814A68002A06D05F
:103CE0000A68531C0B6010704868401E486070479B
:103CF0000A68531C0B6010707047000070B50446D2
:103D00002146034800F0C4F90546284670BD00006E
:103D10009464000838B504460D46E0B200900122D4
:103D200069460248FCF77EFF204638BD900000201F
:103D300070B5044600250AE005EB850045002188A2
:103D40006068405C303805442088401C2080218811
:103D50006088401E814208DAFCF7A4FA00682288D5
:103D60006168895C405C2028E6D0284670BD014629
:103D70000B884A88521E934222DA0B884A68D25C2A
:103D80003D2A06D03F2A18D10A88521C0A800220F8
:103D900015E00A88521C0A800B884A88521E9342FA
:103DA00009DA0B884A68D25C3F2A04D10A88521C7F
:103DB0000A80042000E0032001E0012000BF00E0B1
:103DC000012070472DE9F04704460D4617464FF095
:103DD0000108C14621886088401E81422DDA218871
:103DE0006068405C2C2803D12088401C208024E09F
:103DF00021886068405C3B281FD0FCF753FA0068BC
:103E000022886168895C405C202814D12046FFF735
:103E10008FFF06462E604FF0000921886088401E03
:103E200081420ADA21886068405C2C2805D120880C
:103E3000401C208001E04FF00008B9F1010F00D1D3
:103E40002F604046BDE8F0872DE9FC4304460D464F
:103E5000174698464FF00109002600202870A8F860
:103E6000000021886088401E814207DA218860684E
:103E7000405C2C2803D12088401C208077E02188DA
:103E80006068405C3B2872D021886068405C2228D2
:103E900002D04FF000096AE02088401C20803AE000
:103EA00021886068405C5C282CD12088401C2080E0
:103EB0002088801C6188491E884220DA2288511C93
:103EC00021806168885C01A900F054F8A0B12288C3
:103ED000511C21806168885C694600F04BF858B13C
:103EE0009DF900009DF90410102202FB010005F865
:103EF000010B701C06B20EE04FF000090BE04FF012
:103F0000000908E02188481C20806068405C05F8B2
:103F1000010B701C06B221886088401E814209DABC
:103F200021886068405C222804D0BE4202DCB9F1DE
:103F3000010FB5D0A8F800600020287021886068C3
:103F4000405C222803D1BE4201DC012000E00020B9
:103F500010B94FF000090AE02088401C2080218819
:103F60006068405C2C2802D12088401C2080484694
:103F7000BDE8FC8302460120302A06DB392A04DC36
:103F8000A2F130035BB20B7012E0612A06DB662AF5
:103F900004DCA2F157035BB20B7009E0412A06DB97
:103FA000462A04DCA2F137035BB20B7000E000206C
:103FB000704701460120612901DB7A2904DD41298E
:103FC00001DB5A2900DD00207047FDF7A3FAFEF758
:103FD00073FFFEF763FCFEF70BFCFEF70BFDFEF72D
:103FE0002FFDFEF7D9FCFEF729FC00F015F800BF05
:103FF000FEE701460020842901D0CA1C1044704706
:1040000070B5044625460DB1294600E00121084659
:1040100000F00CFF002070BD10B500F0E7FF00209D
:1040200010BD10B501F070FE012801D001F00AFAB0
:1040300010BD7FB504460D46606998B1A06988B18E
:10404000B4F90800FFF7D5FF0646D4E90510CDE91D
:10405000006102902B462269D4E9001001F00CFEA9
:10406000039013E0B4F90800FFF7C3FF064603A866
:10407000CDE90060238A9AB22B46D4E9001001F002
:10408000C9FD012802D0002004B070BD0398FBE7F1
:104090002DE9F35F0C464FF00009CA4660880028FE
:1040A00041DD00BF009D28E02868FCF717F900F00B
:1040B000FF0A012702260EE0B11E2A68505CFCF7B9
:1040C000F5F883466168885DFCF7F0F8834501D018
:1040D000002705E0761CB01E504501DA012FEBD019
:1040E00000BF2FB16168885DFFF763FF00B1002753
:1040F000012F01D1B94606E00835B9F1000F02D110
:1041000028680028D0D100BFB9F1010F09D121885A
:104110000AF10200084420802046696888478046EA
:1041200001E04FF00C084046BDE8FC9F7CB504461A
:104130000D4604262046FCF78BFB012801D03046B3
:104140007CBD0020ADF80000ADF802500194684637
:10415000FFF7D4FD06463046F2E700002DE9F041B6
:1041600005460E461C4807681C480068001D00F004
:10417000E7FC50B91948006890F82C1001208840DD
:1041800017490968814316480160681C07D136B198
:1041900012480168091D134800F028FD1AE07C1937
:1041A0000E4800684460BC4207D20C480168091DF3
:1041B0000D48006800F000FD0CE008480168091D8A
:1041C0000A48006800F0F8FC09480068844201D2FF
:1041D00007480460BDE8F08144000020380000205A
:1041E00048000020A82C0020700000206C00002057
:1041F0006000002010B5044600F004FD234800686C
:10420000401C224908602248006840B920480460E8
:104210000846006801280DD100F0E6F90AE01D48C3
:10422000006838B91A480068C06AE16A884201D853
:104230001748046018480068401C1749086094F843
:104240002C1001208840154909680843134908606B
:10425000E16A01EB8101124A02EB8100211D00F0AD
:10426000C5FC00F0FBFC0B48006868B1084800681A
:10427000C06AE16A884207D24FF08050094908605D
:10428000BFF34F8FBFF36F8F10BD000040000020C1
:10429000380000204C0000205C0000204800002076
:1042A000F42B002004ED00E008B500F0ABFC124850
:1042B0000068E8B9114800F06FFC114800F06CFC90
:1042C0000E48104908600E480F49086000200F4B47
:1042D0000F4A0C2100900A2001F0FDF80649086001
:1042E0000846006820B10BA10348006800F032FDC9
:1042F00000F0B4FC08BD0000740000207C2D0020FC
:10430000902D00208000002084000020BC2C002084
:10431000042D0020546D72510000000070B523E0A0
:1043200000F0C0FE1348006808B9012000E000203A
:10433000054601F05DFEBDB900F064FC0D48C068A3
:10434000C468201D00F0FCFB0B480068401E0A49B1
:1043500008600A480068401E0849086000F07EFCBA
:10436000204600F060F800BF044800680028D7D15C
:1043700070BD0000942C0020400000203C00002074
:1043800070B504460D46206C70B1216CE06808449D
:10439000E0606168E068884201D32068E0602846F8
:1043A000226CE168FBF788FF70BD2DE9F0410446FF
:1043B0000F4615464FF00008A66B206C40B92068E8
:1043C00060BB606801F064FD80460020606025E00D
:1043D0007DB93946226CA068FBF76EFF216CA0689E
:1043E0000844A060D4E90110884217D32068A06077
:1043F00014E03946226CE068FBF75EFF216CE06850
:10440000401AE0602168E068884203D2216C60684D
:10441000401AE060022D01D106B1761E701CA06327
:104420004046BDE8F08110B5044694F8510030B91B
:10443000206B00F031FC204600F02EFC1AE094F8CE
:104440005100012803D1204600F026FC12E094F828
:104450005100022801D1012000E0002050B900BF26
:10446000502080F31188BFF34F8FBFF36F8F00BFD1
:1044700000BFFEE710BD00000146084A126812683E
:104480000AB9012200E000220A600A6822B9034A40
:104490001268D268106800E0002070478000002099
:1044A00000BFFFF73BFF064800680128F9D94FF02D
:1044B000805004490860BFF34F8FBFF36F8FF0E760
:1044C000F42B002004ED00E02DE9F04106460D46F6
:1044D00017469846069C0DB9246000E02760E66305
:1044E00025640121204601F045F9BDE8F0812DE960
:1044F000FF5F81460F469246DDE90E6B109CAAF1E4
:104500000100216B01EB800828F0070818F0070F65
:1045100001D1012000E0002050B900BF502080F3FD
:104520001188BFF34F8FBFF36F8F00BF00BFFEE74F
:10453000002507E0795D04F134004155785D00B94C
:1045400002E06D1C102DF5D300BF00214320015562
:10455000052E00D30426E66266640020A064201DB8
:1045600000F027FB04F1180000F023FB2461C6F1E2
:104570000500A06164620020E06484F850004946B0
:104580004046039A00F0CAFA2060BBF1000F01D048
:10459000CBF80040BDE8FF9F2DE9F04706460D46E9
:1045A00017469846DDE908940DB1012000E000208F
:1045B00050B900BF502080F31188BFF34F8FBFF375
:1045C0006F8F00BF00BFFEE75CB1FFF76DFE266096
:1045D000A561E761C4F82080C4F82490201D00F094
:1045E000E8FABDE8F087000010B5002407E004EB0E
:1045F00084010F4A02EB810000F0CEFA641C052C06
:10460000F5D30C4800F0C8FA0B4800F0C5FA0B4887
:1046100000F0C2FA0A4800F0BFFA0A4800F0BCFAFB
:1046200004480949086004480849086010BD0000B2
:10463000F42B0020582C00206C2C0020802C002013
:10464000942C0020A82C00206C000020700000207A
:104650002DE9F04104460D4616461F464FF000086E
:1046600065602461B5420CD8F01BA169884202D371
:104670004FF0010811E0211D0948006800F09CFA84
:104680000BE0BE4204D2BD4202D34FF0010804E069
:10469000211D0448006800F08FFA4046BDE8F08113
:1046A000840000208000002070B5054600F0AAFAC2
:1046B000A86B08B9012400E0002400F0CFFA2046DE
:1046C00070BD70B5054600F09DFAA86BE96B884295
:1046D00001D1012400E0002400F0C0FA204670BDA2
:1046E000F8B505460F4616480068C068C468201D26
:1046F00000F026FAE06901281DD1A06941192B4676
:104700003A462046FFF7A4FFA8B1002003462A46F8
:1047100001460090204601F045FD064656B900BF0F
:10472000502080F31188BFF34F8FBFF36F8F00BF0E
:1047300000BFFEE700BF2046616A8847F8BD000061
:104740008000002070B586B06DE0039800286ADB19
:10475000059C606908B9012000E0002010B9201D07
:1047600000F0EEF902A800F0BFF8054603980A2809
:1047700057D2DFE800F009050731334F060832341D
:1047800000BF00BF00BF00BF0498A26981180346A4
:104790002A462046FFF75CFFE8B12046616A884759
:1047A000E069012817D1002000900498A1694218FF
:1047B00000231946204601F0F5FC064656B900BF15
:1047C000502080F31188BFF34F8FBFF36F8F00BF6E
:1047D00000BFFEE700BF25E000BF23E000BF049854
:1047E000A061A06908B1012000E0002050B900BF1D
:1047F000502080F31188BFF34F8FBFF36F8F00BF3E
:1048000000BFFEE7A06941192B462A462046FFF764
:104810001FFF07E094F8280010B9204600F03CFA8A
:1048200000E000BF00BF00231A4603A90348006848
:1048300000F0C0FE002888D106B070BD74000020D2
:10484000F8B505460C4600F02DFC684600F04CF823
:104850000646009820BB44B9B54206D801F0C8FB13
:1048600031462846FFF73CFF1CE03CB10E4800688B
:10487000006808B9012000E000200446A91B224678
:104880000A48006800F0AEFA01F0B2FB50B94FF0F0
:10489000805007490860BFF34F8FBFF36F8F01E06F
:1048A00001F0A6FBF8BD0000840000207400002089
:1048B00004ED00E00A490968096809B9012100E02E
:1048C000002121B14FF0FF31064A116006E0044992
:1048D0000968C968C868034A4168116070470000E8
:1048E0006C0000206000002070B5044601F01CFA46
:1048F000054607480068854204D200F00BF8012005
:10490000206001E00020206001480560284670BD5D
:104910007C0000202DE9F84332E024480068C0689C
:10492000056822480068C068C468201D00F008F9C6
:104930002046616A8847E069012821D1A0694619AB
:10494000AE4207D966602461211D1848006800F056
:1049500033F915E0002003462A4601460090204620
:1049600001F020FC074657B900BF502080F31188A2
:10497000BFF34F8FBFF36F8F00BF00BFFEE700BFD5
:104980000A480068006808B9012000E000200028FB
:10499000C3D00648D0F80080054800680349086085
:1049A0000348C0F80080BDE8F883000080000020C4
:1049B000840000200E480068401C01D1012000E066
:1049C000002050B900BF502080F31188BFF34F8FF3
:1049D000BFF36F8F00BF00BFFEE700BF502080F322
:1049E0001188BFF34F8FBFF36F8F00BF00BFFEE78B
:1049F0002C00002008B500BF6846FFF73DFD0446C7
:104A000020460099FFF71CFFFFF79CFEF4E770B506
:104A1000044600F0F7F894F9455010E0606A08B9D0
:104A2000012000E0002038B904F1240001F094FADC
:104A300018B100F029FA00E003E0681E45B2002D2D
:104A4000ECDC00BFFF2084F8450000F007F900F01F
:104A5000D9F894F9445010E0206908B9012000E029
:104A6000002048B904F1100001F076FA08B100F016
:104A70000BFA681E45B200E001E0002DECDC00BF3F
:104A8000FF2084F8440000F0E9F870BD70B50446DA
:104A9000002514F0070F04D004F00700C0F108004F
:104AA000044400F0FFFA1248006820B9114820F0D1
:104AB00007000F49086010480068204440F6F8716C
:104AC000884210D20C48006820440B49096888428B
:104AD00009D9074800680849096845180648006868
:104AE00020440549086001F083FA284670BD0000A3
:104AF00028000020BC1B002024000020064800687D
:104B000030B10549096801F14800896C491C016010
:104B1000014800687047000038000020001F4FF077
:104B200080730360001F21F001030360001F034B2B
:104B3000036014380260203870470000B54900084F
:104B400001460A69D1E901309860D1E90103586052
:104B50005068884201D18868506000200861106860
:104B6000401E106010687047034B0360034B0B60DE
:104B70004FF48073136070474C0E0020A00E00208D
:104B8000034B0360034B0B604FF4007313607047DB
:104B9000A0120020F412002000F1080141604FF043
:104BA000FF31816000F10801C160016100210160F5
:104BB000704700210161704710B502460B685C1C0C
:104BC00001D1106907E002F1080000E04068446884
:104BD00024689C42FAD944684C604C68A1608860A3
:104BE00041600A611468641C146010BD42684A6028
:104BF00093688B60936859609160086103685B1CDF
:104C00000360704700BF502080F31188BFF34F8FBF
:104C1000BFF36F8F00BF0F480068401C0D4908604C
:104C200008460068012813D10B48006810F0FF0FF8
:104C300001D1012000E0002050B900BF502080F3D6
:104C40001188BFF34F8FBFF36F8F00BF00BFFEE728
:104C5000704700002C00002004ED00E00D480068C3
:104C600050B900BF502080F31188BFF34F8FBFF3BE
:104C70006F8F00BF00BFFEE706480068401E054971
:104C800008600846006820B9002080F3118800BF42
:104C900000BF70472C00002008B9012100E000216E
:104CA00051B900BF502181F31188BFF34F8FBFF37B
:104CB0006F8F00BF00BFFEE7704700000648006826
:104CC0004FF47A71B0FBF1F0401E4FF0E0214861E3
:104CD00007200861704700001800002070B5FBF73E
:104CE00089FA0446102C17D34FF0E020204490F8A6
:104CF000F05315480078854201DB012000E00020D8
:104D000050B900BF502080F31188BFF34F8FBFF31D
:104D10006F8F00BF00BFFEE70C48006800F4E06042
:104D20000B490968884201D8012000E0002050B9F1
:104D300000BF502080F31188BFF34F8FBFF36F8FF8
:104D400000BF00BFFEE770BD300000200CED00E0AA
:104D500034000020024600200BE0084B53F83030AE
:104D600033B9064B43F8301003EBC0035A6002E03E
:104D7000401C0828F1D300BF70470000B42B00206E
:104D800070B50446254655B900BF502080F3118800
:104D9000BFF34F8FBFF36F8F00BF00BFFEE7284602
:104DA00000F008F895F8460010B92846FFF774FFA0
:104DB00070BD0000014600200EE0094A02EBC0026F
:104DC00052688A4207D10022054B43F8302003EB9A
:104DD000C0035A6002E0401C0828EED300BF7047B1
:104DE000B42B00202DE9F04105460E4617462C460F
:104DF000FFF708FF94F94400401C01D184F84400F7
:104E000094F94500401C01D184F84500FFF726FFC6
:104E1000A06B28B93A46314604F1240000F056F858
:104E20002046FFF7F4FDBDE8F081000070B50446B0
:104E30000025D4B11248006808B9012000E0002024
:104E400050B900BF502080F31188BFF34F8FBFF3DC
:104E50006F8F00BF00BFFEE700F024F9002120465D
:104E6000FFF77CF901F0C4F805463DB94FF08050DA
:104E700004490860BFF34F8FBFF36F8F70BD000010
:104E80006800002004ED00E001200149086070473F
:104E90005400002070B504460D4654B900BF5020A0
:104EA00080F31188BFF34F8FBFF36F8F00BF00BF38
:104EB000FEE70548016818312046FFF77DFE012115
:104EC0002846FFF74BF970BD3800002070B5054645
:104ED0000E46144655B900BF502080F31188BFF329
:104EE0004F8FBFF36F8F00BF00BFFEE7064801681A
:104EF00018312846FFF77AFE0CB14FF0FF362146F5
:104F00003046FFF72BF970BD3800002070B505461C
:104F10002C46002D4BD02649E06A0968C96A8842B0
:104F200045D2A06910F0004F05D121480068C06A41
:104F3000C0F10500A061E16A01EB81011D4A02EBAD
:104F400081016069884201D1012000E0002050B356
:104F5000201DFFF7F5FD78B9E06A00EB80001549E8
:104F600051F8200040B994F82C10012088401249D3
:104F700009688143104801600D480068C06AE0621A
:104F800094F82C10012088400B49096808430A490D
:104F90000860E16A01EB8101064A02EB8100211DF4
:104FA000FFF724FE03E002480068C06AE06270BDBB
:104FB00038000020F42B00204800002050B900BF2A
:104FC000502181F31188BFF34F8FBFF36F8F00BF64
:104FD00000BFFEE7034909680160034909684160B1
:104FE00070470000580000204400002010B586B033
:104FF00000200590049003AA04A905A8FFF7B4FDBA
:105000000022DDE904101346CDE9002102901EA123
:105010001F48039A00F030FE1E49086008460068E9
:1050200008B1012400E00024012C02D101F07EF837
:105030000446012C15D100BF502080F31188BFF326
:105040004F8FBFF36F8F00BF4FF0FF3012490860E2
:1050500001201249086000201149086000F0A2F9FF
:1050600010E0601C01D0012000E0002050B900BF1A
:10507000502080F31188BFF34F8FBFF36F8F00BFB5
:1050800000BFFEE706B010BD49444C4500000000DB
:10509000A144000864000020600000204C000020B3
:1050A0004400002002480068401C01490860704725
:1050B000680000201D48006818B101201C490860E4
:1050C00032E000201A4908601A480068B0FA80F0FF
:1050D000C0F11F0101EB8100174A52F8200008B10E
:1050E000012000E0002050B900BF502080F311885B
:1050F000BFF34F8FBFF36F8F00BF00BFFEE701EB21
:1051000081020D4B03EB820042685268426000F15D
:1051100008024368934202D1426852684260426882
:10512000D268064B1A6000BF70470000680000207C
:105130005400002048000020F42B002038000020FC
:105140002DE9F04385B005464FF000082846FEF7EC
:105150000EFE81460026B9F1020F56D0B9F1030FB9
:1051600056D1002204A92846FEF72CFE01284BD177
:10517000049810B1012845D100E000BF00273AE0B3
:10518000002000900190029003AB0B226946284654
:10519000FEF75AFE012822D16846FBF769FB044658
:1051A0008CB1049838B96FF00040844201D10026D8
:1051B00014E0A64312E06FF00040844201D106469D
:1051C0000CE026430AE06A4614A10020FBF7AEFB80
:1051D0004FF00408404605B0BDE8F08303E04FF00F
:1051E00004084046F7E729886888801E814200D17C
:1051F00003E0781CC7B2202FC2DB00BF3046FBF7AC
:10520000DFFB00E000BF00BF05E0FBF755FB02E05D
:105210004FF0040800BF00BF4046DCE74572726FE4
:1052200072205374723A2025730000002DE9F0417A
:10523000E0B0064600273046FEF799FD8046B8F1FB
:10524000030F7DD100225FA93046FEF7BBFD012888
:1052500077D15F9810B1012874D106E002230122B2
:1052600045A10020FBF762FB7DE00025002240A95C
:105270003046FEF7A7FD10B14098012801DD042754
:1052800071E000223FA93046FEF79CFD10B13F9827
:10529000012801DD042766E000223EA93046FEF722
:1052A00091FD20B13E98102801DC3E9808B90427F2
:1052B00059E000241FE02EA800EB840100223046B4
:1052C000FEF780FD48B12EA850F8240028B12EA882
:1052D00050F82400B0F5803F01DB04270EE01EA843
:1052E00000EB840100223046FEF76CFD08B904276C
:1052F00004E0601CC4B23E988442DCDB00BF4098EE
:10530000C1B241A8FDF7AAFD3F98C1B241A8FDF77F
:10531000ACFD3E98C0B28DF8080100240EE02EA826
:1053200030F8240081B247A820F814101EA850F8C5
:1053300024104FA840F82410601CC4B23E9802E02C
:1053400013E011E00DE08442E9DB41A96846FDF776
:1053500073FC054625B12A4669461148FBF762FCF5
:1053600001E0042700BF00BF01E0042700BF00BF29
:10537000384660B0BDE8F08141484D495F45422064
:1053800056657273696F6E3A204D4C44303241302D
:10539000452530326456253032645F424C36300049
:1053A000CC0000201CB52248014609780191FF215C
:1053B000024611700146097800919DF8001001F035
:1053C00050011C4A117007211B4A116009E01A495B
:1053D0000968491E184A11609DF800104906090E17
:1053E00000919DF8001001F080018029EFD0124952
:1053F00009680902104A11601146098801F4E06148
:1054000011600B4A019911700C48006840F470005B
:105410000A4908600846006840F070400860FFF7DD
:105420004DFC002006490860FAF7AEFE00201CBDC6
:1054300000E400E0300000203400002020ED00E017
:105440002C00002010B500BF502080F31188BFF35E
:105450004F8FBFF36F8F00BF00F076FC18B14FF095
:1054600080500449086000BF002080F3118800BF0D
:1054700010BD000004ED00E02DE9F84305460E469E
:1054800090460DB1012000E0002050B900BF50202F
:1054900080F31188BFF34F8FBFF36F8F00BF00BF42
:1054A000FEE70EB9002701E005FB06F707F148000B
:1054B000FFF7ECFA04465CB104F14809002084F8D7
:1054C000460043464A46314628460094FEF7FCFF14
:1054D0002046BDE8F8832DE9F84380460E4617467E
:1054E0001D46DDF82090B8F1000F01D0012000E04A
:1054F000002050B900BF502080F31188BFF34F8FB8
:10550000BFF36F8F00BF00BFFEE70DB1012000E0C9
:10551000002050B900BF502080F31188BFF34F8F97
:10552000BFF36F8F00BF00BFFEE707B10EB10120D0
:1055300000E0002050B900BF502080F31188BFF375
:105540004F8FBFF36F8F00BF00BFFEE707B90EB9E3
:10555000012000E0002050B900BF502080F31188E6
:10556000BFF34F8FBFF36F8F00BF00BFFEE7482030
:1055700000900098482801D1012000E0002050B997
:1055800000BF502080F31188BFF34F8FBFF36F8FA0
:1055900000BF00BFFEE72C464CB1012084F8460056
:1055A0004B463A46314640460094FEF78DFF204672
:1055B000BDE8F8832DE9FF4782B005460E461F4639
:1055C0004FF0000A2C4654B900BF502080F31188D8
:1055D000BFF34F8FBFF36F8F00BF00BFFEE70EB961
:1055E000206C08B9012000E0002050B900BF502015
:1055F00080F31188BFF34F8FBFF36F8F00BF00BFE1
:10560000FEE700F081FB08B9049808B9012000E02A
:10561000002050B900BF502080F31188BFF34F8F96
:10562000BFF36F8F00BF00BFFEE700BFFFF7EAFACE
:10563000D4F83890B9F1000F3DD0D4F80C80314641
:105640002046FEF79DFEDFB9A9F10100A0632068A6
:1056500010B9FFF753FA6060206908B9012000E033
:10566000002010BB04F1100000F076FCE8B14FF010
:1056700080503F490860BFF34F8FBFF36F8F14E036
:10568000C4F80C80606A08B9012000E0002060B90D
:1056900004F1240000F060FC38B14FF08050344930
:1056A0000860BFF34F8FBFF36F8FFFF7D7FA01206A
:1056B00006B0BDE8F087049818B9FFF7CFFA0020CC
:1056C000F6E7BAF1000F04D16846FFF777FC4FF018
:1056D000010AFFF7C3FAFFF7E5FCFFF793FA94F925
:1056E0004400401C01D184F8440094F94500401C5A
:1056F00001D184F84500FFF7B1FA04A9684600F02B
:1057000043FA40BB2046FEF7CFFFF0B1206830B926
:10571000FFF778FA6068FFF7F9FBFFF79FFA04F1EB
:1057200024000499FFF7B6FB2046FFF770F900F05C
:105730005FFC00287FF47AAF4FF080500C4908607E
:10574000BFF34F8FBFF36F8F70E72046FFF75FF90E
:1057500000F04EFC6AE72046FFF759F900F048FCDC
:105760002046FEF7A1FF0028EED00020A0E70000B1
:1057700004ED00E070B505460E462C4654B900BF56
:10578000502080F31188BFF34F8FBFF36F8F00BF9E
:1057900000BFFEE7FFF736FAD4E90F12206801FBDD
:1057A000020060600020A0632068A060E06B401EE3
:1057B000226C216800FB0210E060FF2084F84400A6
:1057C00084F845009EB9206908B9012000E0002056
:1057D000A8B904F1100000F0BFFB80B14FF0805079
:1057E00009490860BFF34F8FBFF36F8F07E004F1E3
:1057F0001000FFF7D1F904F12400FFF7CDF9FFF70E
:105800002DFA012070BD000004ED00E02DE9FF43FA
:1058100083B0064688461D464FF00009344654B909
:1058200000BF502080F31188BFF34F8FBFF36F8FFD
:1058300000BF00BFFEE7B8F1000F01D1206C08B92E
:10584000012000E0002050B900BF502080F31188F3
:10585000BFF34F8FBFF36F8F00BF00BFFEE7022D76
:1058600002D1E06B012801D1012000E0002050B9F5
:1058700000BF502080F31188BFF34F8FBFF36F8FAD
:1058800000BF00BFFEE700F03FFA08B9059808B96D
:10589000012000E0002050B900BF502080F31188A3
:1058A000BFF34F8FBFF36F8F00BF00BFFEE700BF96
:1058B000FFF7A8F9A06BE16B884201D3022D28D134
:1058C0002A4641462046FEF770FD0746606A08B941
:1058D000012000E0002068B904F1240000F03CFB46
:1058E00088B14FF0805031490860BFF34F8FBFF34C
:1058F0006F8F08E03FB14FF080502C490860BFF334
:105900004F8FBFF36F8FFFF7A9F9012007B0BDE8F4
:10591000F083059818B9FFF7A1F90020F6E7B9F16F
:10592000000F04D101A8FFF749FB4FF00109FFF771
:1059300095F9FFF7B7FBFFF765F994F94400401CB0
:1059400001D184F8440094F94500401C01D184F849
:105950004500FFF783F905A901A800F015F9F0B992
:105960002046FEF7AEFEA0B104F110000599FFF746
:1059700091FA2046FFF74BF800F03AFB002897D148
:105980004FF0805009490860BFF34F8FBFF36F8F0E
:105990008EE72046FFF73BF800F02AFB88E7204619
:1059A000FFF735F800F024FB0020AFE704ED00E03E
:1059B0002DE9F05F07468A4690461E463C4654B99C
:1059C00000BF502080F31188BFF34F8FBFF36F8F5C
:1059D00000BF00BFFEE7BAF1000F01D1206C08B98B
:1059E000012000E0002050B900BF502080F3118852
:1059F000BFF34F8FBFF36F8F00BF00BFFEE7022ED4
:105A000002D1E06B012801D1012000E0002050B953
:105A100000BF502080F31188BFF34F8FBFF36F8F0B
:105A200000BF00BFFEE7FFF759F900BF5021EFF3B9
:105A3000118081F31188BFF34F8FBFF36F8F00BFC9
:105A40000546A06BE16B884201D3022E23D194F965
:105A500045B0324651462046FEF7A7FC1BF1010037
:105A600011D1606A08B9012000E0002080B904F17A
:105A7000240000F071FA58B1B8F1000F08D00120ED
:105A8000C8F8000004E00BF1010040B284F84500C2
:105A90004FF0010901E04FF0000900BF85F31188C4
:105AA00000BF4846BDE8F09F2DE9F04706460F4687
:105AB000344654B900BF502080F31188BFF34F8F94
:105AC000BFF36F8F00BF00BFFEE7206C08B9012055
:105AD00000E0002050B900BF502080F31188BFF3D0
